{
  "_format": "hh-sol-artifact-1",
  "contractName": "ClaimableSale",
  "sourceName": "contracts/sales/ClaimableSale.sol",
  "abi": [
    {
      "anonymous": false,
      "inputs": [
        {
          "indexed": true,
          "internalType": "uint256",
          "name": "id",
          "type": "uint256"
        },
        {
          "indexed": true,
          "internalType": "address",
          "name": "contributor",
          "type": "address"
        },
        {
          "indexed": false,
          "internalType": "uint256",
          "name": "currencyAmount",
          "type": "uint256"
        }
      ],
      "name": "Contributed",
      "type": "event"
    },
    {
      "anonymous": false,
      "inputs": [
        {
          "indexed": true,
          "internalType": "uint256",
          "name": "id",
          "type": "uint256"
        },
        {
          "indexed": true,
          "internalType": "address",
          "name": "contributor",
          "type": "address"
        },
        {
          "indexed": false,
          "internalType": "uint256",
          "name": "refundAmounts",
          "type": "uint256"
        }
      ],
      "name": "ContributionRefunded",
      "type": "event"
    },
    {
      "anonymous": false,
      "inputs": [
        {
          "indexed": true,
          "internalType": "uint256",
          "name": "id",
          "type": "uint256"
        },
        {
          "indexed": true,
          "internalType": "address",
          "name": "to",
          "type": "address"
        },
        {
          "indexed": false,
          "internalType": "address",
          "name": "token",
          "type": "address"
        },
        {
          "indexed": false,
          "internalType": "uint256",
          "name": "amount",
          "type": "uint256"
        }
      ],
      "name": "EmergencyWithdrawn",
      "type": "event"
    },
    {
      "anonymous": false,
      "inputs": [
        {
          "indexed": true,
          "internalType": "uint256",
          "name": "id",
          "type": "uint256"
        },
        {
          "indexed": true,
          "internalType": "address",
          "name": "kcsOwner",
          "type": "address"
        },
        {
          "indexed": false,
          "internalType": "uint256",
          "name": "feeAmount",
          "type": "uint256"
        }
      ],
      "name": "FeeTransferred",
      "type": "event"
    },
    {
      "anonymous": false,
      "inputs": [
        {
          "indexed": true,
          "internalType": "uint256",
          "name": "id",
          "type": "uint256"
        },
        {
          "indexed": true,
          "internalType": "address",
          "name": "to",
          "type": "address"
        },
        {
          "indexed": false,
          "internalType": "uint256",
          "name": "amount",
          "type": "uint256"
        }
      ],
      "name": "FundsTransferred",
      "type": "event"
    },
    {
      "anonymous": false,
      "inputs": [
        {
          "indexed": true,
          "internalType": "address",
          "name": "investor",
          "type": "address"
        },
        {
          "indexed": false,
          "internalType": "bool",
          "name": "isWhitelisted",
          "type": "bool"
        }
      ],
      "name": "InvestorState",
      "type": "event"
    },
    {
      "anonymous": false,
      "inputs": [
        {
          "indexed": true,
          "internalType": "uint256",
          "name": "id",
          "type": "uint256"
        },
        {
          "indexed": true,
          "internalType": "address",
          "name": "to",
          "type": "address"
        },
        {
          "indexed": false,
          "internalType": "uint256",
          "name": "leftOverTokensBalance",
          "type": "uint256"
        }
      ],
      "name": "LeftOverTokensTransferred",
      "type": "event"
    },
    {
      "anonymous": false,
      "inputs": [
        {
          "indexed": true,
          "internalType": "uint256",
          "name": "id",
          "type": "uint256"
        },
        {
          "indexed": true,
          "internalType": "address",
          "name": "kcsOwner",
          "type": "address"
        },
        {
          "indexed": false,
          "internalType": "uint256",
          "name": "tokensAmount",
          "type": "uint256"
        }
      ],
      "name": "LiquidityAdded",
      "type": "event"
    },
    {
      "anonymous": false,
      "inputs": [
        {
          "indexed": true,
          "internalType": "uint256",
          "name": "id",
          "type": "uint256"
        },
        {
          "indexed": false,
          "internalType": "uint256",
          "name": "tokensSold",
          "type": "uint256"
        },
        {
          "indexed": false,
          "internalType": "uint256",
          "name": "saleEndTime",
          "type": "uint256"
        }
      ],
      "name": "SaleClosed",
      "type": "event"
    },
    {
      "anonymous": false,
      "inputs": [
        {
          "indexed": true,
          "internalType": "uint256",
          "name": "id",
          "type": "uint256"
        },
        {
          "indexed": true,
          "internalType": "address",
          "name": "contributor",
          "type": "address"
        },
        {
          "indexed": false,
          "internalType": "uint256",
          "name": "tokensBought",
          "type": "uint256"
        }
      ],
      "name": "TokensClaimed",
      "type": "event"
    },
    {
      "anonymous": false,
      "inputs": [
        {
          "indexed": true,
          "internalType": "address",
          "name": "to",
          "type": "address"
        },
        {
          "indexed": true,
          "internalType": "contract IKccERC20",
          "name": "token",
          "type": "address"
        },
        {
          "indexed": false,
          "internalType": "uint256",
          "name": "amount",
          "type": "uint256"
        }
      ],
      "name": "TokensRecovered",
      "type": "event"
    },
    {
      "inputs": [
        {
          "internalType": "address",
          "name": "_investor",
          "type": "address"
        }
      ],
      "name": "blacklistInvestor",
      "outputs": [],
      "stateMutability": "nonpayable",
      "type": "function"
    },
    {
      "inputs": [
        {
          "internalType": "address[]",
          "name": "_investors",
          "type": "address[]"
        }
      ],
      "name": "blacklistInvestors",
      "outputs": [],
      "stateMutability": "nonpayable",
      "type": "function"
    },
    {
      "inputs": [
        {
          "internalType": "uint256",
          "name": "_id",
          "type": "uint256"
        }
      ],
      "name": "claimTokens",
      "outputs": [],
      "stateMutability": "nonpayable",
      "type": "function"
    },
    {
      "inputs": [
        {
          "internalType": "uint256",
          "name": "_id",
          "type": "uint256"
        }
      ],
      "name": "closeSale",
      "outputs": [],
      "stateMutability": "nonpayable",
      "type": "function"
    },
    {
      "inputs": [
        {
          "internalType": "uint256",
          "name": "_id",
          "type": "uint256"
        },
        {
          "internalType": "uint256",
          "name": "_currencyAmount",
          "type": "uint256"
        }
      ],
      "name": "contribute",
      "outputs": [],
      "stateMutability": "payable",
      "type": "function"
    },
    {
      "inputs": [
        {
          "internalType": "address",
          "name": "",
          "type": "address"
        }
      ],
      "name": "contributors",
      "outputs": [
        {
          "internalType": "uint256",
          "name": "currencyBalance",
          "type": "uint256"
        },
        {
          "internalType": "uint256",
          "name": "tokenBalance",
          "type": "uint256"
        },
        {
          "internalType": "bool",
          "name": "isAmountRefunded",
          "type": "bool"
        }
      ],
      "stateMutability": "view",
      "type": "function"
    },
    {
      "inputs": [],
      "name": "currencyAddress",
      "outputs": [
        {
          "internalType": "address",
          "name": "",
          "type": "address"
        }
      ],
      "stateMutability": "view",
      "type": "function"
    },
    {
      "inputs": [
        {
          "internalType": "uint256",
          "name": "_id",
          "type": "uint256"
        },
        {
          "internalType": "address payable",
          "name": "_to",
          "type": "address"
        }
      ],
      "name": "emergencyExit",
      "outputs": [],
      "stateMutability": "nonpayable",
      "type": "function"
    },
    {
      "inputs": [
        {
          "internalType": "uint256",
          "name": "_id",
          "type": "uint256"
        }
      ],
      "name": "finalize",
      "outputs": [],
      "stateMutability": "nonpayable",
      "type": "function"
    },
    {
      "inputs": [],
      "name": "freezeTime",
      "outputs": [
        {
          "internalType": "uint256",
          "name": "",
          "type": "uint256"
        }
      ],
      "stateMutability": "view",
      "type": "function"
    },
    {
      "inputs": [],
      "name": "getAllContributors",
      "outputs": [
        {
          "internalType": "address[]",
          "name": "",
          "type": "address[]"
        }
      ],
      "stateMutability": "view",
      "type": "function"
    },
    {
      "inputs": [],
      "name": "getAllNotRefundedContributors",
      "outputs": [
        {
          "internalType": "address[]",
          "name": "",
          "type": "address[]"
        }
      ],
      "stateMutability": "view",
      "type": "function"
    },
    {
      "inputs": [
        {
          "internalType": "address",
          "name": "_salesCreator",
          "type": "address"
        },
        {
          "internalType": "address[2]",
          "name": "_tokenAddress",
          "type": "address[2]"
        },
        {
          "internalType": "uint256[2]",
          "name": "_capSettings",
          "type": "uint256[2]"
        },
        {
          "internalType": "uint256[2]",
          "name": "_contributionSettings",
          "type": "uint256[2]"
        },
        {
          "internalType": "uint256[2]",
          "name": "_timeSettings",
          "type": "uint256[2]"
        },
        {
          "internalType": "uint256",
          "name": "_pricePerToken",
          "type": "uint256"
        },
        {
          "internalType": "uint256",
          "name": "_saleFeePercentage",
          "type": "uint256"
        },
        {
          "internalType": "bool",
          "name": "_whitelistingStatus",
          "type": "bool"
        },
        {
          "internalType": "bool",
          "name": "_useTokenForFee",
          "type": "bool"
        }
      ],
      "name": "init",
      "outputs": [],
      "stateMutability": "nonpayable",
      "type": "function"
    },
    {
      "inputs": [
        {
          "internalType": "address",
          "name": "",
          "type": "address"
        }
      ],
      "name": "investorWhitelistMapping",
      "outputs": [
        {
          "internalType": "bool",
          "name": "",
          "type": "bool"
        }
      ],
      "stateMutability": "view",
      "type": "function"
    },
    {
      "inputs": [],
      "name": "isFeesWithdrawn",
      "outputs": [
        {
          "internalType": "bool",
          "name": "",
          "type": "bool"
        }
      ],
      "stateMutability": "view",
      "type": "function"
    },
    {
      "inputs": [],
      "name": "isFinalized",
      "outputs": [
        {
          "internalType": "bool",
          "name": "",
          "type": "bool"
        }
      ],
      "stateMutability": "view",
      "type": "function"
    },
    {
      "inputs": [],
      "name": "kcsPadFactory",
      "outputs": [
        {
          "internalType": "contract IKcsPadFactory",
          "name": "",
          "type": "address"
        }
      ],
      "stateMutability": "view",
      "type": "function"
    },
    {
      "inputs": [
        {
          "internalType": "contract IKccERC20",
          "name": "_token",
          "type": "address"
        },
        {
          "internalType": "address",
          "name": "_to",
          "type": "address"
        },
        {
          "internalType": "uint256",
          "name": "_amount",
          "type": "uint256"
        }
      ],
      "name": "recoverTokens",
      "outputs": [],
      "stateMutability": "nonpayable",
      "type": "function"
    },
    {
      "inputs": [],
      "name": "refundContributionForAll",
      "outputs": [],
      "stateMutability": "nonpayable",
      "type": "function"
    },
    {
      "inputs": [],
      "name": "saleInfo",
      "outputs": [
        {
          "internalType": "uint256",
          "name": "pricePerToken",
          "type": "uint256"
        },
        {
          "internalType": "uint256",
          "name": "saleFee",
          "type": "uint256"
        },
        {
          "internalType": "uint256",
          "name": "hardCap",
          "type": "uint256"
        },
        {
          "internalType": "uint256",
          "name": "softCap",
          "type": "uint256"
        },
        {
          "internalType": "uint256",
          "name": "minimumPurchaseLimit",
          "type": "uint256"
        },
        {
          "internalType": "uint256",
          "name": "maximumPurchaseLimit",
          "type": "uint256"
        },
        {
          "internalType": "uint256",
          "name": "saleStartTime",
          "type": "uint256"
        },
        {
          "internalType": "uint256",
          "name": "saleEndTime",
          "type": "uint256"
        },
        {
          "internalType": "uint256",
          "name": "totalTokensSold",
          "type": "uint256"
        },
        {
          "internalType": "uint256",
          "name": "totalAmountRaised",
          "type": "uint256"
        },
        {
          "internalType": "uint256",
          "name": "totalRefundedAmount",
          "type": "uint256"
        }
      ],
      "stateMutability": "view",
      "type": "function"
    },
    {
      "inputs": [],
      "name": "saleTokenAddress",
      "outputs": [
        {
          "internalType": "address",
          "name": "",
          "type": "address"
        }
      ],
      "stateMutability": "view",
      "type": "function"
    },
    {
      "inputs": [],
      "name": "salesCreator",
      "outputs": [
        {
          "internalType": "address",
          "name": "",
          "type": "address"
        }
      ],
      "stateMutability": "view",
      "type": "function"
    },
    {
      "inputs": [
        {
          "internalType": "uint256",
          "name": "_startAfter",
          "type": "uint256"
        },
        {
          "internalType": "uint256",
          "name": "_runningPeriod",
          "type": "uint256"
        }
      ],
      "name": "updateStartAndEndTime",
      "outputs": [],
      "stateMutability": "nonpayable",
      "type": "function"
    },
    {
      "inputs": [],
      "name": "useTokenForFee",
      "outputs": [
        {
          "internalType": "bool",
          "name": "",
          "type": "bool"
        }
      ],
      "stateMutability": "view",
      "type": "function"
    },
    {
      "inputs": [],
      "name": "usersProcessed",
      "outputs": [
        {
          "internalType": "uint256",
          "name": "",
          "type": "uint256"
        }
      ],
      "stateMutability": "view",
      "type": "function"
    },
    {
      "inputs": [
        {
          "internalType": "address",
          "name": "_investor",
          "type": "address"
        }
      ],
      "name": "whitelistInvestor",
      "outputs": [],
      "stateMutability": "nonpayable",
      "type": "function"
    },
    {
      "inputs": [
        {
          "internalType": "address[]",
          "name": "_investors",
          "type": "address[]"
        }
      ],
      "name": "whitelistInvestors",
      "outputs": [],
      "stateMutability": "nonpayable",
      "type": "function"
    },
    {
      "inputs": [
        {
          "internalType": "uint256",
          "name": "_nonce",
          "type": "uint256"
        },
        {
          "internalType": "uint8",
          "name": "_v",
          "type": "uint8"
        },
        {
          "internalType": "bytes32",
          "name": "_r",
          "type": "bytes32"
        },
        {
          "internalType": "bytes32",
          "name": "_s",
          "type": "bytes32"
        }
      ],
      "name": "whitelistYourself",
      "outputs": [],
      "stateMutability": "nonpayable",
      "type": "function"
    },
    {
      "inputs": [],
      "name": "whitelistingStatus",
      "outputs": [
        {
          "internalType": "bool",
          "name": "",
          "type": "bool"
        }
      ],
      "stateMutability": "view",
      "type": "function"
    },
    {
      "inputs": [
        {
          "internalType": "uint256",
          "name": "_id",
          "type": "uint256"
        }
      ],
      "name": "withdrawContribution",
      "outputs": [],
      "stateMutability": "nonpayable",
      "type": "function"
    },
    {
      "inputs": [
        {
          "internalType": "uint256",
          "name": "_id",
          "type": "uint256"
        }
      ],
      "name": "withdrawFees",
      "outputs": [],
      "stateMutability": "nonpayable",
      "type": "function"
    }
  ],
  "bytecode": "0x608060405234801561001057600080fd5b506136cd806100206000396000f3fe6080604052600436106101d85760003560e01c806380ef06cd11610102578063c1ad840b11610095578063e186088a11610064578063e186088a14610611578063f9784ca714610631578063fd7e1bee14610646578063ffc1b0381461065c57600080fd5b8063c1ad840b1461058b578063c430bcda146105b1578063cd4c9af1146105d1578063d25090ff146105f157600080fd5b8063a4223d53116100d1578063a4223d5314610511578063af82d98314610531578063b479cb6614610551578063bd694af21461057157600080fd5b806380ef06cd146104295780638c5909171461044d5780638d4e4083146104605780638e3695b81461047f57600080fd5b806346e04a2f1161017a5780635613680a116101495780635613680a146103a95780635e318e07146103c95780635f3e849f146103e957806374064e091461040957600080fd5b806346e04a2f146103325780634b030ed5146103525780634dbb17b01461036757806351f890ea1461038757600080fd5b80631f6d4942116101b65780631f6d49421461025c57806329e27e90146102b85780632c3a19c6146102d8578063420f06611461031857600080fd5b806305261aea146101dd578063115c97d4146101ff5780631c1cb3231461023c575b600080fd5b3480156101e957600080fd5b506101fd6101f8366004613175565b61067c565b005b34801561020b57600080fd5b5060015461021f906001600160a01b031681565b6040516001600160a01b0390911681526020015b60405180910390f35b34801561024857600080fd5b5060125461021f906001600160a01b031681565b34801561026857600080fd5b5061029b610277366004612f32565b60166020526000908152604090208054600182015460029092015490919060ff1683565b604080519384526020840192909252151590820152606001610233565b3480156102c457600080fd5b506101fd6102d33660046131f9565b610b1f565b3480156102e457600080fd5b506103086102f3366004612f32565b60026020526000908152604090205460ff1681565b6040519015158152602001610233565b34801561032457600080fd5b506015546103089060ff1681565b34801561033e57600080fd5b506101fd61034d366004613175565b610d4e565b34801561035e57600080fd5b506101fd610eec565b34801561037357600080fd5b506015546103089062010000900460ff1681565b34801561039357600080fd5b5061039c611010565b604051610233919061326f565b3480156103b557600080fd5b506101fd6103c436600461305e565b611072565b3480156103d557600080fd5b506101fd6103e4366004613175565b61114b565b3480156103f557600080fd5b506101fd610404366004613134565b6114eb565b34801561041557600080fd5b506101fd61042436600461305e565b611680565b34801561043557600080fd5b5061043f60145481565b604051908152602001610233565b6101fd61045b3660046131d7565b611775565b34801561046c57600080fd5b5060155461030890610100900460ff1681565b34801561048b57600080fd5b50600554600654600754600854600954600a54600b54600c54600d54600e54600f546104be9a999897969594939291908b565b604080519b8c5260208c019a909a52988a01979097526060890195909552608088019390935260a087019190915260c086015260e085015261010084015261012083015261014082015261016001610233565b34801561051d57600080fd5b506101fd61052c366004613175565b6118b5565b34801561053d57600080fd5b5060115461021f906001600160a01b031681565b34801561055d57600080fd5b506101fd61056c3660046131d7565b61195e565b34801561057d57600080fd5b506004546103089060ff1681565b34801561059757600080fd5b5060005461021f906201000090046001600160a01b031681565b3480156105bd57600080fd5b506101fd6105cc366004612f32565b611a62565b3480156105dd57600080fd5b506101fd6105ec366004612f6c565b611afc565b3480156105fd57600080fd5b506101fd61060c366004613175565b611d0a565b34801561061d57600080fd5b506101fd61062c3660046131a7565b611f1f565b34801561063d57600080fd5b5061039c6122c2565b34801561065257600080fd5b5061043f60105481565b34801561066857600080fd5b506101fd610677366004612f32565b6123dd565b600c5442116106a65760405162461bcd60e51b815260040161069d9061335d565b60405180910390fd5b6001546001600160a01b031633146106d05760405162461bcd60e51b815260040161069d906132ef565b601054156106f05760405162461bcd60e51b815260040161069d90613394565b601554610100900460ff16156107415760405162461bcd60e51b815260206004820152601660248201527514d85b1948185b1c9958591e48199a5b985b1a5e995960521b604482015260640161069d565b6011546015805461ff0019166101001790556008546001600160a01b0390911690158015906107735750600854600d54105b1561088157600e54600f54146107e65760405162461bcd60e51b815260206004820152603260248201527f466972737420726566756e6420657665727920636f6e7472696275746f72732060448201527118dbdb9d1c9a589d5d195908185b5bdd5b9d60721b606482015260840161069d565b60155460009062010000900460ff166108015760075461081a565b60075461080d90612468565b60075461081a919061345e565b600154909150610837906001600160a01b0384811691168361248c565b6001546040518281526001600160a01b039091169084907fe53ef86f1d79cb2e0da0f0f24ceb04d4ddb1a6213bc8165789af42f462dd6e9e906020015b60405180910390a3505050565b6012546001600160a01b031615156000808061089b6124f4565b601554929550909350915060ff16610a0b5760008060029054906101000a90046001600160a01b03166001600160a01b0316634273601c6040518163ffffffff1660e01b815260040160206040518083038186803b1580156108fc57600080fd5b505afa158015610910573d6000803e3d6000fd5b505050506040513d601f19601f820116820180604052508101906109349190612f4f565b6015805460ff19166001179081905590915062010000900460ff161561096d576109686001600160a01b038716828661248c565b6109c5565b846109ae576040516001600160a01b0382169085156108fc029086906000818181858888f193505050501580156109a8573d6000803e3d6000fd5b506109c5565b6012546109c5906001600160a01b0316828661248c565b806001600160a01b0316877ff2fd2ec424ad085bbd02e334ef97d3415579d9bd28248400a8b8789c8a1622a886604051610a0191815260200190565b60405180910390a3505b83610a50576001546040516001600160a01b039091169083156108fc029084906000818181858888f19350505050158015610a4a573d6000803e3d6000fd5b50610a6d565b600154601254610a6d916001600160a01b0391821691168461248c565b6001546040518381526001600160a01b039091169087907fe90ae330e5aefc2a73ddff0dd88bcaf8f4a0629d6553a2a85b22cac3d5f4a19e9060200160405180910390a38015610b1657600154610ad1906001600160a01b0387811691168361248c565b6001546040518281526001600160a01b039091169087907fe53ef86f1d79cb2e0da0f0f24ceb04d4ddb1a6213bc8165789af42f462dd6e9e9060200160405180910390a35b505050505b5050565b60045460ff16610b415760405162461bcd60e51b815260040161069d90613326565b60008481526003602052604090205460ff1615610ba05760405162461bcd60e51b815260206004820152601760248201527f4e6f6e636520616c72656164792070726f636573736564000000000000000000604482015260640161069d565b6040516bffffffffffffffffffffffff1930606090811b8216602084015233901b16603482015260488101859052600090610c4190606801604051602081830303815290604052805190602001206040517f19457468657265756d205369676e6564204d6573736167653a0a3332000000006020820152603c8101829052600090605c01604051602081830303815290604052805190602001209050919050565b60408051600081526020810180835283905260ff871691810191909152606081018590526080810184905290915060019060a0016020604051602081039080840390855afa158015610c97573d6000803e3d6000fd5b5050604051601f1901516001546001600160a01b039081169116149050610cf45760405162461bcd60e51b8152602060048201526011602482015270496e76616c6964207369676e617475726560781b604482015260640161069d565b60008581526003602090815260408083208054600160ff1991821681179092553380865260028552948390208054909116821790559051908152600080516020613678833981519152910160405180910390a25050505050565b600c544211610d6f5760405162461bcd60e51b815260040161069d9061335d565b6008541580610d815750600d54600854105b610dc45760405162461bcd60e51b815260206004820152601460248201527314dbd99d0818d85c081b9bdd081c995858da195960621b604482015260640161069d565b33600090815260166020526040902054610e205760405162461bcd60e51b815260206004820152601c60248201527f48617665206e6f7420636f6e747269627574656420746f2073616c6500000000604482015260640161069d565b60105415610e405760405162461bcd60e51b815260040161069d90613394565b336000908152601660205260409020600181015480610e9a5760405162461bcd60e51b8152602060048201526016602482015275151bdad95b9cc8185b1c9958591e4818db185a5b595960521b604482015260640161069d565b60006001830155601154610eb8906001600160a01b0316338361248c565b604051818152339084907f880f2ef2613b092f1a0a819f294155c98667eb294b7e6bf7a3810278142c1a1c90602001610874565b600c544211610f0d5760405162461bcd60e51b815260040161069d9061335d565b60085415801590610f215750600854600d54105b610f685760405162461bcd60e51b815260206004820152601860248201527714dbd99d0818d85c08185b1c9958591e481c995858da195960421b604482015260640161069d565b6001546001600160a01b03163314610f925760405162461bcd60e51b815260040161069d906132ef565b60105415610fb25760405162461bcd60e51b815260040161069d90613394565b600e54600f5414156110065760405162461bcd60e51b815260206004820181905260248201527f526566756e642070726f6365737320616c726561647920636f6d706c65746564604482015260640161069d565b61100e612609565b565b6060601780548060200260200160405190810160405280929190818152602001828054801561106857602002820191906000526020600020905b81546001600160a01b0316815260019091019060200180831161104a575b5050505050905090565b60045460ff166110945760405162461bcd60e51b815260040161069d90613326565b6001546001600160a01b031633146110be5760405162461bcd60e51b815260040161069d906132ef565b60005b8151811015610b1b576001600260008484815181106110e2576110e2613619565b6020908102919091018101516001600160a01b03168252818101929092526040908101600020805460ff1916931515939093179092559051600181523391600080516020613678833981519152910160405180910390a280611143816135e8565b9150506110c1565b600c54421161116c5760405162461bcd60e51b815260040161069d9061335d565b600854158061117e5750600d54600854105b6111c15760405162461bcd60e51b815260206004820152601460248201527314dbd99d0818d85c081b9bdd081c995858da195960621b604482015260640161069d565b600060029054906101000a90046001600160a01b03166001600160a01b0316634273601c6040518163ffffffff1660e01b815260040160206040518083038186803b15801561120f57600080fd5b505afa158015611223573d6000803e3d6000fd5b505050506040513d601f19601f820116820180604052508101906112479190612f4f565b6001600160a01b0316336001600160a01b031614806112e1575060005460405163429b62e560e01b8152336004820152620100009091046001600160a01b03169063429b62e59060240160206040518083038186803b1580156112a957600080fd5b505afa1580156112bd573d6000803e3d6000fd5b505050506040513d601f19601f820116820180604052508101906112e19190613117565b6112fd5760405162461bcd60e51b815260040161069d906133c2565b6010541561131d5760405162461bcd60e51b815260040161069d90613394565b60155460ff16156113685760405162461bcd60e51b81526020600482015260156024820152742332b29030b63932b0b23c903bb4ba34323930bbb760591b604482015260640161069d565b60008060029054906101000a90046001600160a01b03166001600160a01b0316634273601c6040518163ffffffff1660e01b815260040160206040518083038186803b1580156113b757600080fd5b505afa1580156113cb573d6000803e3d6000fd5b505050506040513d601f19601f820116820180604052508101906113ef9190612f4f565b6015805460ff19166001179081905590915060009062010000900460ff161561143d57600d5461141e90612468565b601154909150611438906001600160a01b0316838361248c565b6114af565b600e5461144990612468565b6012549091506001600160a01b0316611498576040516001600160a01b0383169082156108fc029083906000818181858888f19350505050158015611492573d6000803e3d6000fd5b506114af565b6012546114af906001600160a01b0316838361248c565b816001600160a01b0316837ff2fd2ec424ad085bbd02e334ef97d3415579d9bd28248400a8b8789c8a1622a88360405161087491815260200190565b600060029054906101000a90046001600160a01b03166001600160a01b0316634273601c6040518163ffffffff1660e01b815260040160206040518083038186803b15801561153957600080fd5b505afa15801561154d573d6000803e3d6000fd5b505050506040513d601f19601f820116820180604052508101906115719190612f4f565b6001600160a01b0316336001600160a01b0316148061160b575060005460405163429b62e560e01b8152336004820152620100009091046001600160a01b03169063429b62e59060240160206040518083038186803b1580156115d357600080fd5b505afa1580156115e7573d6000803e3d6000fd5b505050506040513d601f19601f8201168201806040525081019061160b9190613117565b6116275760405162461bcd60e51b815260040161069d906133c2565b61163b6001600160a01b038416838361248c565b826001600160a01b0316826001600160a01b03167f401f439d865a766757ec78675925bd67198d5e78805aa41691b34b5d6a6cbbe68360405161087491815260200190565b60045460ff166116a25760405162461bcd60e51b815260040161069d90613326565b6001546001600160a01b031633146116cc5760405162461bcd60e51b815260040161069d906132ef565b60005b8151811015610b1b576000600260008484815181106116f0576116f0613619565b60200260200101516001600160a01b03166001600160a01b0316815260200190815260200160002060006101000a81548160ff021916908315150217905550336001600160a01b0316600080516020613678833981519152600060405161175b911515815260200190565b60405180910390a28061176d816135e8565b9150506116cf565b600b54421180156117875750600c5442105b6117c85760405162461bcd60e51b815260206004820152601260248201527153616c65206973206e6f742061637469766560701b604482015260640161069d565b60045460ff161561183e573360009081526002602052604090205460ff1661183e5760405162461bcd60e51b815260206004820152602360248201527f436f6e7472696275746f722061646472657373206e6f742077686974656c69736044820152621d195960ea1b606482015260840161069d565b6010541561185e5760405162461bcd60e51b815260040161069d90613394565b61186781612873565b5061187182612b31565b61187a81612bd5565b604051818152339083907fb2ed2e021651f85a4754a44651fc09ac5141bc0329ce4dfe8dd712a5d04a8b399060200160405180910390a35050565b600b54421180156118c75750600c5442105b6119085760405162461bcd60e51b815260206004820152601260248201527153616c65206973206e6f742061637469766560701b604482015260640161069d565b6001546001600160a01b031633146119325760405162461bcd60e51b815260040161069d906132ef565b601054156119525760405162461bcd60e51b815260040161069d90613394565b61195b81612bfe565b50565b6001546001600160a01b031633146119885760405162461bcd60e51b815260040161069d906132ef565b601054156119a85760405162461bcd60e51b815260040161069d90613394565b600b5442106119f95760405162461bcd60e51b815260206004820152601860248201527f53616c652068617320616c726561647920737461727465640000000000000000604482015260640161069d565b60008111611a415760405162461bcd60e51b8152602060048201526015602482015274125b9d985b1a59081c9d5b9b9a5b99d4195c9a5bd9605a1b604482015260640161069d565b611a4b824261345e565b600b819055611a5b90829061345e565b600c555050565b60045460ff16611a845760405162461bcd60e51b815260040161069d90613326565b6001546001600160a01b03163314611aae5760405162461bcd60e51b815260040161069d906132ef565b6001600160a01b038116600090815260026020908152604091829020805460ff191660019081179091559151918252339160008051602061367883398151915291015b60405180910390a250565b600054610100900460ff1680611b15575060005460ff16155b611b785760405162461bcd60e51b815260206004820152602e60248201527f496e697469616c697a61626c653a20636f6e747261637420697320616c72656160448201526d191e481a5b9a5d1a585b1a5e995960921b606482015260840161069d565b600054610100900460ff16158015611b9a576000805461ffff19166101011790555b600180546001600160a01b03199081166001600160a01b038d8116919091179092556000805462010000600160b01b0319163362010000021790558a516011805483169184169190911790556020808c01516012805490931693169290921790558851600855888101516007558751600955870151600a558551611c1e904261345e565b600b8190556020870151611c319161345e565b600c55600585905560068490556015805462ff0000191662010000841515021790556011546040805163313ce56760e01b815290516001600160a01b039092169163313ce56791600480820192602092909190829003018186803b158015611c9857600080fd5b505afa158015611cac573d6000803e3d6000fd5b505050506040513d601f19601f82011682018060405250810190611cd09190613236565b611cdb90600a6134db565b6013556004805460ff19168415151790558015611cfe576000805461ff00191690555b50505050505050505050565b600c544211611d2b5760405162461bcd60e51b815260040161069d9061335d565b60085415801590611d3f5750600854600d54105b611d865760405162461bcd60e51b815260206004820152601860248201527714dbd99d0818d85c08185b1c9958591e481c995858da195960421b604482015260640161069d565b33600090815260166020526040902054611de25760405162461bcd60e51b815260206004820152601c60248201527f48617665206e6f7420636f6e747269627574656420746f2073616c6500000000604482015260640161069d565b60105415611e025760405162461bcd60e51b815260040161069d90613394565b336000908152601660205260409020600281015460ff1615611e665760405162461bcd60e51b815260206004820152601d60248201527f436f6e747269627574696f6e20616c726561647920726566756e646564000000604482015260640161069d565b805460028201805460ff19166001179055600f8054829190600090611e8c90849061345e565b90915550506012546001600160a01b0316611ed457604051339082156108fc029083906000818181858888f19350505050158015611ece573d6000803e3d6000fd5b50611eeb565b601254611eeb906001600160a01b0316338361248c565b604051818152339084907ffc8dc45aafeb84bf841ffa6c1b48653bea5b43662ab6685b9683e2e5b72fc74f90602001610874565b600060029054906101000a90046001600160a01b03166001600160a01b0316634273601c6040518163ffffffff1660e01b815260040160206040518083038186803b158015611f6d57600080fd5b505afa158015611f81573d6000803e3d6000fd5b505050506040513d601f19601f82011682018060405250810190611fa59190612f4f565b6001600160a01b0316336001600160a01b0316148061203f575060005460405163429b62e560e01b8152336004820152620100009091046001600160a01b03169063429b62e59060240160206040518083038186803b15801561200757600080fd5b505afa15801561201b573d6000803e3d6000fd5b505050506040513d601f19601f8201168201806040525081019061203f9190613117565b61205b5760405162461bcd60e51b815260040161069d906133c2565b601054156120a45760405162461bcd60e51b815260206004820152601660248201527529b0b6329034b99030b63932b0b23c90333937bd32b760511b604482015260640161069d565b426010556011546040516370a0823160e01b81523060048201526000916001600160a01b031690829082906370a082319060240160206040518083038186803b1580156120f057600080fd5b505afa158015612104573d6000803e3d6000fd5b505050506040513d601f19601f82011682018060405250810190612128919061318e565b905061213e6001600160a01b038316858361248c565b601154604080516001600160a01b039283168152602081018490529186169187917fe2e97c4b4e9aee5199c56fd2b262e96a586bc470410957980a5c868abe458225910160405180910390a36012546001600160a01b031615612234576012546040516370a0823160e01b81523060048201526001600160a01b039091169081906370a082319060240160206040518083038186803b1580156121e057600080fd5b505afa1580156121f4573d6000803e3d6000fd5b505050506040513d601f19601f82011682018060405250810190612218919061318e565b935061222e6001600160a01b038216868661248c565b5061226f565b6040514793506001600160a01b0385169084156108fc029085906000818181858888f1935050505015801561226d573d6000803e3d6000fd5b505b601254604080516001600160a01b039283168152602081018690529186169187917fe2e97c4b4e9aee5199c56fd2b262e96a586bc470410957980a5c868abe458225910160405180910390a35050505050565b60175460609060008167ffffffffffffffff8111156122e3576122e361362f565b60405190808252806020026020018201604052801561230c578160200160208202803683370190505b50905060005b828110156123d657601660006017838154811061233157612331613619565b60009182526020808320909101546001600160a01b0316835282019290925260400190206002015460ff166123c4576017818154811061237357612373613619565b9060005260206000200160009054906101000a90046001600160a01b03168282815181106123a3576123a3613619565b60200260200101906001600160a01b031690816001600160a01b0316815250505b806123ce816135e8565b915050612312565b5092915050565b60045460ff166123ff5760405162461bcd60e51b815260040161069d90613326565b6001546001600160a01b031633146124295760405162461bcd60e51b815260040161069d906132ef565b6001600160a01b0381166000908152600260209081526040808320805460ff191690555191825233916000805160206136788339815191529101611af1565b6006546000906127109061247c9084613586565b6124869190613476565b92915050565b6040516001600160a01b0383166024820152604481018290526124ef90849063a9059cbb60e01b906064015b60408051601f198184030181529190526020810180516001600160e01b03166001600160e01b031990931692909217909152612c40565b505050565b6040805161016081018252600554815260065460208201526007549181019190915260085460608201526009546080820152600a5460a0820152600b5460c0820152600c5460e0820152600d54610100820152600e54610120820152600f54610140820152601554600091829182919062010000900460ff16156125c857612580816101000151612468565b93508061012001519250836125988260400151612468565b6125a291906135a5565b81610100015182604001516125b791906135a5565b6125c1919061345e565b9150612603565b6125d6816101200151612468565b9350838161012001516125e991906135a5565b9250806101000151816040015161260091906135a5565b91505b50909192565b6000601780548060200260200160405190810160405280929190818152602001828054801561266157602002820191906000526020600020905b81546001600160a01b03168152600190910190602001808311612643575b5050835160145460125495965090949093506001600160a01b03161591506127709050575b8181101561276b576000601660008584815181106126a6576126a6613619565b6020908102919091018101516001600160a01b03168252810191909152604001600020600281015490915060ff1661273a57805460028201805460ff19166001179055600f80548291906000906126fe90849061345e565b9250508190555061273885848151811061271a5761271a613619565b60209081029190910101516012546001600160a01b0316908361248c565b505b61fde85a10156127585761274f82600161345e565b60145550505050565b5080612763816135e8565b915050612686565b61286c565b8181101561286c5760006016600085848151811061279057612790613619565b6020908102919091018101516001600160a01b03168252810191909152604001600020600281015490915060ff1661284457805460028201805460ff19166001179055600f80548291906000906127e890849061345e565b9250508190555084838151811061280157612801613619565b60200260200101516001600160a01b03166108fc829081150290604051600060405180830381858888f19350505050158015612841573d6000803e3d6000fd5b50505b61afc85a10156128595761274f82600161345e565b5080612864816135e8565b915050612770565b6014555050565b6012546000906001600160a01b0316156128d357600082116128ce5760405162461bcd60e51b81526020600482015260146024820152730416d6f756e742073686f756c64206265203e20360641b604482015260640161069d565b612969565b6000341161291a5760405162461bcd60e51b81526020600482015260146024820152730416d6f756e742073686f756c64206265203e20360641b604482015260640161069d565b3482146129695760405162461bcd60e51b815260206004820152601960248201527f416d6f756e7420616e642076616c7565206d69736d6174636800000000000000604482015260640161069d565b336000908152601660209081526040918290208251610160810184526005548152600654928101929092526007549282019290925260085460608201526009546080820152600a5460a0820152600b5460c0820152600c5460e0820152600d54610100820152600e54610120820152600f546101408201528154612a2a57601780546001810182556000919091527fc624b66cc0138b8fabc209247f72d758e1cf3343756d543badbf24212bed8c150180546001600160a01b031916331790555b805160135460009190612a3d9087613586565b612a479190613476565b90506000818460010154612a5b919061345e565b905082608001518110158015612a7557508260a001518111155b612ac15760405162461bcd60e51b815260206004820152601b60248201527f496e76616c696420636f6e747269627574696f6e20616d6f756e740000000000604482015260640161069d565b81846001016000828254612ad5919061345e565b9091555050835486908590600090612aee90849061345e565b9091555050600d8054839190600090612b0890849061345e565b9091555050600e8054879190600090612b2290849061345e565b90915550919695505050505050565b60408051610160810182526005548152600654602082015260075491810182905260085460608201526009546080820152600a5460a0820152600b5460c0820152600c5460e0820152600d546101008201819052600e54610120830152600f546101408301529091600091612ba5916135a5565b90508160800151811015612bbe576009819055600a8190555b6040820151600d5414156124ef576124ef83612bfe565b6012546001600160a01b03161561195b5760125461195b906001600160a01b0316333084612d12565b42600c819055600d5460408051918252602082019290925282917fa55f48d0808fcdfa7358b896fda5c04a107866ce6ca528f2c9c04d6fa5c2a13e9101611af1565b6000612c95826040518060400160405280602081526020017f5361666545524332303a206c6f772d6c6576656c2063616c6c206661696c6564815250856001600160a01b0316612d509092919063ffffffff16565b8051909150156124ef5780806020019051810190612cb39190613117565b6124ef5760405162461bcd60e51b815260206004820152602a60248201527f5361666545524332303a204552433230206f7065726174696f6e20646964206e6044820152691bdd081cdd58d8d9595960b21b606482015260840161069d565b6040516001600160a01b0380851660248301528316604482015260648101829052612d4a9085906323b872dd60e01b906084016124b8565b50505050565b6060612d5f8484600085612d69565b90505b9392505050565b606082471015612dca5760405162461bcd60e51b815260206004820152602660248201527f416464726573733a20696e73756666696369656e742062616c616e636520666f6044820152651c8818d85b1b60d21b606482015260840161069d565b843b612e185760405162461bcd60e51b815260206004820152601d60248201527f416464726573733a2063616c6c20746f206e6f6e2d636f6e7472616374000000604482015260640161069d565b600080866001600160a01b03168587604051612e349190613253565b60006040518083038185875af1925050503d8060008114612e71576040519150601f19603f3d011682016040523d82523d6000602084013e612e76565b606091505b5091509150612e86828286612e91565b979650505050505050565b60608315612ea0575081612d62565b825115612eb05782518084602001fd5b8160405162461bcd60e51b815260040161069d91906132bc565b600082601f830112612edb57600080fd5b612ee3613404565b808385604086011115612ef557600080fd5b60005b6002811015612f17578135845260209384019390910190600101612ef8565b509095945050505050565b8035612f2d8161365a565b919050565b600060208284031215612f4457600080fd5b8135612d6281613645565b600060208284031215612f6157600080fd5b8151612d6281613645565b60008060008060008060008060006101a08a8c031215612f8b57600080fd5b8935612f9681613645565b9850603f8a018b13612fa757600080fd5b612faf613404565b8060208c0160608d018e811115612fc557600080fd5b60005b6002811015612ff1578235612fdc81613645565b85526020948501949290920191600101612fc8565b50829b50612fff8f82612eca565b9a50505050506130128b60a08c01612eca565b95506130218b60e08c01612eca565b94506101208a013593506101408a013592506130406101608b01612f22565b915061304f6101808b01612f22565b90509295985092959850929598565b6000602080838503121561307157600080fd5b823567ffffffffffffffff8082111561308957600080fd5b818501915085601f83011261309d57600080fd5b8135818111156130af576130af61362f565b8060051b91506130c084830161342d565b8181528481019084860184860187018a10156130db57600080fd5b600095505b8386101561310a57803594506130f585613645565b848352600195909501949186019186016130e0565b5098975050505050505050565b60006020828403121561312957600080fd5b8151612d628161365a565b60008060006060848603121561314957600080fd5b833561315481613645565b9250602084013561316481613645565b929592945050506040919091013590565b60006020828403121561318757600080fd5b5035919050565b6000602082840312156131a057600080fd5b5051919050565b600080604083850312156131ba57600080fd5b8235915060208301356131cc81613645565b809150509250929050565b600080604083850312156131ea57600080fd5b50508035926020909101359150565b6000806000806080858703121561320f57600080fd5b84359350602085013561322181613668565b93969395505050506040820135916060013590565b60006020828403121561324857600080fd5b8151612d6281613668565b600082516132658184602087016135bc565b9190910192915050565b6020808252825182820181905260009190848201906040850190845b818110156132b05783516001600160a01b03168352928401929184019160010161328b565b50909695505050505050565b60208152600082518060208401526132db8160408501602087016135bc565b601f01601f19169190910160400192915050565b6020808252601d908201527f4f6e6c7920616c6c6f7765642062792073616c65732063726561746f72000000604082015260600190565b6020808252601b908201527f4e6f7420612077686974656c697374656420747970652073616c650000000000604082015260600190565b6020808252601c908201527f53616c6520686173206e6f7420656e6465642079657420656e64656400000000604082015260600190565b60208082526014908201527329b0b632903430b9903132b2b710333937bd32b760611b604082015260600190565b60208082526022908201527f4f6e6c7920616c6c6f776564206279206b6373206f776e6572206f722061646d60408201526134b760f11b606082015260800190565b6040805190810167ffffffffffffffff811182821017156134275761342761362f565b60405290565b604051601f8201601f1916810167ffffffffffffffff811182821017156134565761345661362f565b604052919050565b6000821982111561347157613471613603565b500190565b60008261349357634e487b7160e01b600052601260045260246000fd5b500490565b600181815b808511156134d35781600019048211156134b9576134b9613603565b808516156134c657918102915b93841c939080029061349d565b509250929050565b6000612d6260ff8416836000826134f457506001612486565b8161350157506000612486565b816001811461351757600281146135215761353d565b6001915050612486565b60ff84111561353257613532613603565b50506001821b612486565b5060208310610133831016604e8410600b8410161715613560575081810a612486565b61356a8383613498565b806000190482111561357e5761357e613603565b029392505050565b60008160001904831182151516156135a0576135a0613603565b500290565b6000828210156135b7576135b7613603565b500390565b60005b838110156135d75781810151838201526020016135bf565b83811115612d4a5750506000910152565b60006000198214156135fc576135fc613603565b5060010190565b634e487b7160e01b600052601160045260246000fd5b634e487b7160e01b600052603260045260246000fd5b634e487b7160e01b600052604160045260246000fd5b6001600160a01b038116811461195b57600080fd5b801515811461195b57600080fd5b60ff8116811461195b57600080fdfeafc169713610dc5c1c82d95d0016a50a9d8b1d5e79a3433d061772dcedd3fa86a2646970667358221220bd985780fd0390780c6d3c1ffb5bf22a83e43586b302fd93063d435b15b7412364736f6c63430008060033",
  "linkReferences": {},
  "deployedLinkReferences": {}
}