{
  "_format": "hh-sol-artifact-1",
  "contractName": "KcsPadFactory",
  "sourceName": "contracts/factory/KcsPadFactory.sol",
  "abi": [
    {
      "inputs": [
        {
          "internalType": "address",
          "name": "_claimableSaleAddress",
          "type": "address"
        }
      ],
      "stateMutability": "nonpayable",
      "type": "constructor"
    },
    {
      "anonymous": false,
      "inputs": [
        {
          "indexed": true,
          "internalType": "address",
          "name": "account",
          "type": "address"
        }
      ],
      "name": "AdminAdded",
      "type": "event"
    },
    {
      "anonymous": false,
      "inputs": [
        {
          "indexed": true,
          "internalType": "address",
          "name": "account",
          "type": "address"
        }
      ],
      "name": "AdminRemoved",
      "type": "event"
    },
    {
      "anonymous": false,
      "inputs": [
        {
          "indexed": true,
          "internalType": "uint256",
          "name": "id",
          "type": "uint256"
        },
        {
          "indexed": true,
          "internalType": "address",
          "name": "saleCreator",
          "type": "address"
        },
        {
          "indexed": true,
          "internalType": "address",
          "name": "newSaleAddress",
          "type": "address"
        }
      ],
      "name": "NewSaleCreated",
      "type": "event"
    },
    {
      "anonymous": false,
      "inputs": [
        {
          "indexed": true,
          "internalType": "address",
          "name": "previousOwner",
          "type": "address"
        },
        {
          "indexed": true,
          "internalType": "address",
          "name": "newOwner",
          "type": "address"
        }
      ],
      "name": "OwnershipTransferred",
      "type": "event"
    },
    {
      "anonymous": false,
      "inputs": [
        {
          "indexed": true,
          "internalType": "address",
          "name": "to",
          "type": "address"
        },
        {
          "indexed": true,
          "internalType": "contract IKccERC20",
          "name": "token",
          "type": "address"
        },
        {
          "indexed": false,
          "internalType": "uint256",
          "name": "amount",
          "type": "uint256"
        }
      ],
      "name": "TokensRecovered",
      "type": "event"
    },
    {
      "inputs": [
        {
          "internalType": "address[]",
          "name": "_account",
          "type": "address[]"
        }
      ],
      "name": "addAdmin",
      "outputs": [],
      "stateMutability": "nonpayable",
      "type": "function"
    },
    {
      "inputs": [
        {
          "internalType": "address",
          "name": "",
          "type": "address"
        }
      ],
      "name": "admins",
      "outputs": [
        {
          "internalType": "bool",
          "name": "",
          "type": "bool"
        }
      ],
      "stateMutability": "view",
      "type": "function"
    },
    {
      "inputs": [
        {
          "internalType": "uint256",
          "name": "_id",
          "type": "uint256"
        },
        {
          "internalType": "address[2]",
          "name": "_tokenAddress",
          "type": "address[2]"
        },
        {
          "internalType": "uint256[2]",
          "name": "_capSettings",
          "type": "uint256[2]"
        },
        {
          "internalType": "uint256[2]",
          "name": "_contributionSettings",
          "type": "uint256[2]"
        },
        {
          "internalType": "uint256[2]",
          "name": "_timeSettings",
          "type": "uint256[2]"
        },
        {
          "internalType": "uint256",
          "name": "_pricePerToken",
          "type": "uint256"
        },
        {
          "internalType": "uint256",
          "name": "_saleFeePercentage",
          "type": "uint256"
        },
        {
          "internalType": "bool",
          "name": "_whitelistingStatus",
          "type": "bool"
        }
      ],
      "name": "createSale",
      "outputs": [],
      "stateMutability": "nonpayable",
      "type": "function"
    },
    {
      "inputs": [],
      "name": "factoryOwner",
      "outputs": [
        {
          "internalType": "address",
          "name": "",
          "type": "address"
        }
      ],
      "stateMutability": "view",
      "type": "function"
    },
    {
      "inputs": [],
      "name": "owner",
      "outputs": [
        {
          "internalType": "address",
          "name": "",
          "type": "address"
        }
      ],
      "stateMutability": "view",
      "type": "function"
    },
    {
      "inputs": [],
      "name": "platformStatus",
      "outputs": [
        {
          "internalType": "bool",
          "name": "",
          "type": "bool"
        }
      ],
      "stateMutability": "view",
      "type": "function"
    },
    {
      "inputs": [
        {
          "internalType": "contract IKccERC20",
          "name": "_token",
          "type": "address"
        },
        {
          "internalType": "address",
          "name": "_to",
          "type": "address"
        },
        {
          "internalType": "uint256",
          "name": "_amount",
          "type": "uint256"
        }
      ],
      "name": "recoverTokens",
      "outputs": [],
      "stateMutability": "nonpayable",
      "type": "function"
    },
    {
      "inputs": [
        {
          "internalType": "address[]",
          "name": "_account",
          "type": "address[]"
        }
      ],
      "name": "removeAdmin",
      "outputs": [],
      "stateMutability": "nonpayable",
      "type": "function"
    },
    {
      "inputs": [],
      "name": "renounceOwnership",
      "outputs": [],
      "stateMutability": "nonpayable",
      "type": "function"
    },
    {
      "inputs": [],
      "name": "saleAddress",
      "outputs": [
        {
          "internalType": "address",
          "name": "",
          "type": "address"
        }
      ],
      "stateMutability": "view",
      "type": "function"
    },
    {
      "inputs": [
        {
          "internalType": "address",
          "name": "newOwner",
          "type": "address"
        }
      ],
      "name": "transferOwnership",
      "outputs": [],
      "stateMutability": "nonpayable",
      "type": "function"
    },
    {
      "inputs": [
        {
          "internalType": "bool",
          "name": "_useTokenForFee",
          "type": "bool"
        }
      ],
      "name": "updateFeeType",
      "outputs": [],
      "stateMutability": "nonpayable",
      "type": "function"
    },
    {
      "inputs": [
        {
          "internalType": "bool",
          "name": "_status",
          "type": "bool"
        }
      ],
      "name": "updatePlatformStatus",
      "outputs": [],
      "stateMutability": "nonpayable",
      "type": "function"
    },
    {
      "inputs": [
        {
          "internalType": "address",
          "name": "_salesAddress",
          "type": "address"
        }
      ],
      "name": "updateSalesAddress",
      "outputs": [],
      "stateMutability": "nonpayable",
      "type": "function"
    },
    {
      "inputs": [],
      "name": "useTokenForFee",
      "outputs": [
        {
          "internalType": "bool",
          "name": "",
          "type": "bool"
        }
      ],
      "stateMutability": "view",
      "type": "function"
    }
  ],
  "bytecode": "0x60806040526003805460ff1916600117905534801561001d57600080fd5b5060405161146538038061146583398101604081905261003c916100ba565b6100453361006a565b600180546001600160a01b0319166001600160a01b03929092169190911790556100ea565b600080546001600160a01b038381166001600160a01b0319831681178455604051919092169283917f8be0079c531659141344cd1fd0a4f28419497f9722a3daafe3b4186f6b6457e09190a35050565b6000602082840312156100cc57600080fd5b81516001600160a01b03811681146100e357600080fd5b9392505050565b61136c806100f96000396000f3fe608060405234801561001057600080fd5b50600436106100f55760003560e01c80635f3e849f11610097578063ae876f6111610066578063ae876f61146101f0578063f2fde38b14610203578063f76a7a5d14610216578063fffe088d1461022957600080fd5b80635f3e849f146101b1578063715018a6146101c45780638da5cb5b146101cc578063923490bb146101dd57600080fd5b8063429b62e5116100d3578063429b62e51461015657806343431bec1461017957806349b8d24f1461018c5780634dbb17b01461019f57600080fd5b80632b704867146100fa5780633d0950a81461011c5780634273601c14610131575b600080fd5b6003546101079060ff1681565b60405190151581526020015b60405180910390f35b61012f61012a366004610e8a565b61023c565b005b6000546001600160a01b03165b6040516001600160a01b039091168152602001610113565b610107610164366004610e6d565b60026020526000908152604090205460ff1681565b61012f610187366004610f43565b610337565b61012f61019a366004610f43565b61037b565b60035461010790610100900460ff1681565b61012f6101bf366004610f7d565b6103b8565b61012f610448565b6000546001600160a01b031661013e565b61012f6101eb366004610fbe565b61047e565b61012f6101fe366004610e8a565b610856565b61012f610211366004610e6d565b610944565b61012f610224366004610e6d565b6109df565b60015461013e906001600160a01b031681565b6000546001600160a01b0316331461026f5760405162461bcd60e51b8152600401610266906111a2565b60405180910390fd5b60005b815181101561033357600160026000848481518110610293576102936112e7565b60200260200101516001600160a01b03166001600160a01b0316815260200190815260200160002060006101000a81548160ff0219169083151502179055508181815181106102e4576102e46112e7565b60200260200101516001600160a01b03167f44d6d25963f097ad14f29f06854a01f575648a1ef82f30e562ccd3889717e33960405160405180910390a28061032b816112b6565b915050610272565b5050565b6000546001600160a01b031633146103615760405162461bcd60e51b8152600401610266906111a2565b600380549115156101000261ff0019909216919091179055565b6000546001600160a01b031633146103a55760405162461bcd60e51b8152600401610266906111a2565b6003805460ff1916911515919091179055565b6000546001600160a01b031633146103e25760405162461bcd60e51b8152600401610266906111a2565b6103f66001600160a01b0384168383610a2b565b826001600160a01b0316826001600160a01b03167f401f439d865a766757ec78675925bd67198d5e78805aa41691b34b5d6a6cbbe68360405161043b91815260200190565b60405180910390a3505050565b6000546001600160a01b031633146104725760405162461bcd60e51b8152600401610266906111a2565b61047c6000610a93565b565b60035460ff166104d05760405162461bcd60e51b815260206004820152601760248201527f53616c6520706c6174666f726d20697320636c6f7365640000000000000000006044820152606401610266565b86516001600160a01b03166105275760405162461bcd60e51b815260206004820152601960248201527f496e76616c69642073616c65546f6b656e2061646472657373000000000000006044820152606401610266565b6000831161056f5760405162461bcd60e51b815260206004820152601560248201527424b73b30b634b210383934b1b2a832b92a37b5b2b760591b6044820152606401610266565b60208601516105b25760405162461bcd60e51b815260206004820152600f60248201526e0496e76616c6964206861726443617608c1b6044820152606401610266565b6020860151865111156105f95760405162461bcd60e51b815260206004820152600f60248201526e0496e76616c696420736f667443617608c1b6044820152606401610266565b60208501511580159061061457506020808701519086015111155b6106605760405162461bcd60e51b815260206004820152601c60248201527f496e76616c6964206d6178696d756d50757263686173654c696d6974000000006044820152606401610266565b60208501518551118015906106865750855161067f5784511515610686565b8551855111155b6106d25760405162461bcd60e51b815260206004820152601c60248201527f496e76616c6964206d696e696d756d50757263686173654c696d6974000000006044820152606401610266565b602084015161071b5760405162461bcd60e51b8152602060048201526015602482015274125b9d985b1a59081c9d5b9b9a5b99d4195c9a5bd9605a1b6044820152606401610266565b600154600090610733906001600160a01b0316610ae3565b60035460405163cd4c9af160e01b81529192506001600160a01b0383169163cd4c9af19161077d9133918d918d918d918d918d918d918d9161010090910460ff16906004016110d4565b600060405180830381600087803b15801561079757600080fd5b505af11580156107ab573d6000803e3d6000fd5b505060035460009250610100900460ff1690506107cc5760208801516107f9565b6020880151612710906107e090869061126b565b6107ea9190611249565b60208901516107f99190611231565b9050610812338a516001600160a01b0316908484610b80565b6040516001600160a01b0383169033908c907f59b8dd24b4edd8c0a71f1bc1105ef9c57e4e49304c8ee5ac14615addc2873c2490600090a450505050505050505050565b6000546001600160a01b031633146108805760405162461bcd60e51b8152600401610266906111a2565b60005b8151811015610333576000600260008484815181106108a4576108a46112e7565b60200260200101516001600160a01b03166001600160a01b0316815260200190815260200160002060006101000a81548160ff0219169083151502179055508181815181106108f5576108f56112e7565b60200260200101516001600160a01b03167fa3b62bc36326052d97ea62d63c3d60308ed4c3ea8ac079dd8499f1e9c4f80c0f60405160405180910390a28061093c816112b6565b915050610883565b6000546001600160a01b0316331461096e5760405162461bcd60e51b8152600401610266906111a2565b6001600160a01b0381166109d35760405162461bcd60e51b815260206004820152602660248201527f4f776e61626c653a206e6577206f776e657220697320746865207a65726f206160448201526564647265737360d01b6064820152608401610266565b6109dc81610a93565b50565b6000546001600160a01b03163314610a095760405162461bcd60e51b8152600401610266906111a2565b600180546001600160a01b0319166001600160a01b0392909216919091179055565b6040516001600160a01b038316602482015260448101829052610a8e90849063a9059cbb60e01b906064015b60408051601f198184030181529190526020810180516001600160e01b03166001600160e01b031990931692909217909152610bbe565b505050565b600080546001600160a01b038381166001600160a01b0319831681178455604051919092169283917f8be0079c531659141344cd1fd0a4f28419497f9722a3daafe3b4186f6b6457e09190a35050565b6000604051733d602d80600a3d3981f3363d3d373d3d3d363d7360601b81528260601b60148201526e5af43d82803e903d91602b57fd5bf360881b60288201526037816000f09150506001600160a01b038116610b7b5760405162461bcd60e51b8152602060048201526016602482015275115490cc4c4d8dce8818dc99585d194819985a5b195960521b6044820152606401610266565b919050565b6040516001600160a01b0380851660248301528316604482015260648101829052610bb89085906323b872dd60e01b90608401610a57565b50505050565b6000610c13826040518060400160405280602081526020017f5361666545524332303a206c6f772d6c6576656c2063616c6c206661696c6564815250856001600160a01b0316610c909092919063ffffffff16565b805190915015610a8e5780806020019051810190610c319190610f60565b610a8e5760405162461bcd60e51b815260206004820152602a60248201527f5361666545524332303a204552433230206f7065726174696f6e20646964206e6044820152691bdd081cdd58d8d9595960b21b6064820152608401610266565b6060610c9f8484600085610ca9565b90505b9392505050565b606082471015610d0a5760405162461bcd60e51b815260206004820152602660248201527f416464726573733a20696e73756666696369656e742062616c616e636520666f6044820152651c8818d85b1b60d21b6064820152608401610266565b843b610d585760405162461bcd60e51b815260206004820152601d60248201527f416464726573733a2063616c6c20746f206e6f6e2d636f6e74726163740000006044820152606401610266565b600080866001600160a01b03168587604051610d7491906110b8565b60006040518083038185875af1925050503d8060008114610db1576040519150601f19603f3d011682016040523d82523d6000602084013e610db6565b606091505b5091509150610dc6828286610dd1565b979650505050505050565b60608315610de0575081610ca2565b825115610df05782518084602001fd5b8160405162461bcd60e51b8152600401610266919061116f565b600082601f830112610e1b57600080fd5b610e236111d7565b808385604086011115610e3557600080fd5b60005b6002811015610e57578135845260209384019390910190600101610e38565b509095945050505050565b8035610b7b81611328565b600060208284031215610e7f57600080fd5b8135610ca281611313565b60006020808385031215610e9d57600080fd5b823567ffffffffffffffff80821115610eb557600080fd5b818501915085601f830112610ec957600080fd5b813581811115610edb57610edb6112fd565b8060051b9150610eec848301611200565b8181528481019084860184860187018a1015610f0757600080fd5b600095505b83861015610f365780359450610f2185611313565b84835260019590950194918601918601610f0c565b5098975050505050505050565b600060208284031215610f5557600080fd5b8135610ca281611328565b600060208284031215610f7257600080fd5b8151610ca281611328565b600080600060608486031215610f9257600080fd5b8335610f9d81611313565b92506020840135610fad81611313565b929592945050506040919091013590565b600080600080600080600080610180898b031215610fdb57600080fd5b8835975060208a603f8b0112610ff057600080fd5b610ff86111d7565b80828c0160608d018e81111561100d57600080fd5b60005b600281101561103657823561102481611313565b85529385019391850191600101611010565b50829b506110448f82610e0a565b9a5050505050506110588a60a08b01610e0a565b94506110678a60e08b01610e0a565b9350610120890135925061014089013591506110866101608a01610e62565b90509295985092959890939650565b8060005b6002811015610bb8578151845260209384019390910190600101611099565b600082516110ca81846020870161128a565b9190910192915050565b6001600160a01b038a811682526101a082019060208084018c60005b600281101561110f5781518516835291830191908301906001016110f0565b5050505050611121606083018a611095565b61112e60a0830189611095565b61113b60e0830188611095565b856101208301528461014083015261115861016083018515159052565b8215156101808301529a9950505050505050505050565b602081526000825180602084015261118e81604085016020870161128a565b601f01601f19169190910160400192915050565b6020808252818101527f4f776e61626c653a2063616c6c6572206973206e6f7420746865206f776e6572604082015260600190565b6040805190810167ffffffffffffffff811182821017156111fa576111fa6112fd565b60405290565b604051601f8201601f1916810167ffffffffffffffff81118282101715611229576112296112fd565b604052919050565b60008219821115611244576112446112d1565b500190565b60008261126657634e487b7160e01b600052601260045260246000fd5b500490565b6000816000190483118215151615611285576112856112d1565b500290565b60005b838110156112a557818101518382015260200161128d565b83811115610bb85750506000910152565b60006000198214156112ca576112ca6112d1565b5060010190565b634e487b7160e01b600052601160045260246000fd5b634e487b7160e01b600052603260045260246000fd5b634e487b7160e01b600052604160045260246000fd5b6001600160a01b03811681146109dc57600080fd5b80151581146109dc57600080fdfea2646970667358221220ba8c4d0abee33fc4b01451e602c1125ffa6499304321e434e9af8c02ff44b83f64736f6c63430008060033",
  "linkReferences": {},
  "deployedLinkReferences": {}
}